:020000040000FA
:0A0000000200160200A275A8872274
:07000B000200C875E4322277
:10001300020171787FE4F6D8FD75813A02005D0232
:10002300010AE493A3F8E493A34003F68001F208E2
:10003300DFF48029E493A3F85407240CC8C333C422
:10004300540F4420C8834004F456800146F6DFE48D
:10005300800B0102040810204080900136E47E01E9
:100063009360BCA3FF543F30E509541FFEE493A300
:1000730060010ECF54C025E060A840B8E493A3FA12
:10008300E493A3F8E493A3C8C582C8CAC583CAF09E
:10009300A3C8C582C8CAC583CADFE9DEE780BEC07C
:1000A300E0C0D075D000C000B295E52625E0242736
:1000B300F8A62308A6240526E52670020525D00008
:1000C300D0D0D0E032C0E00522E5227002052164E1
:1000D3006445217010B2940524E52470020523754C
:1000E3002100752200D0E03285A7081201451201D4
:1000F3006A12014F12016312012312015912000EF9
:100103001200068508A7221200EBC2B4D2AF3082D8
:1001130003208306C2A8C2AA80F4D2A8D2AA80EE82
:10012300AF885388AF758CC0EF5440FEEF54104E28
:1001330042882202230000C10002250000022100A0
:100143000000E4F5A77597DE7597AD2275A60875CF
:10015300A72075CC0822758E027589024388102268
:10016300E4F5A775E3402275A57075D57022B2A991
:010173003259
:00000001FF
