:020000040000FA
:1000000002001602012F02080000000200C175A8BC
:02001000872245
:10001300020132787FE4F6D8FD75810A02005D02A1
:1000230000EDE493A3F8E493A34003F68001F20800
:10003300DFF48029E493A3F85407240CC8C333C422
:10004300540F4420C8834004F456800146F6DFE48D
:10005300800B0102040810204080900006E47E011A
:100063009360BCA3FF543F30E509541FFEE493A300
:1000730060010ECF54C025E060A840B8E493A3FA12
:10008300E493A3F8E493A3C8C582C8CAC583CAF09E
:10009300A3C8C582C8CAC583CADFE9DEE780BE85B7
:1000A300A70A1200FF12012412010912011D1200F6
:1000B300DA12011312012B12000E850AA722C0E0E7
:1000C3000509E50970020508646445087006B294E1
:1000D300F508F509D0E032AF885388AF758CC0EFCF
:1000E3005440FEEF54104E4288221200A2C2B4D2F2
:1000F300AF3082FD3083FA43E60280F5E4F5A7755D
:1001030097DE7597AD2275A60875A72075CC0822D2
:10011300758E0275890243881022E4F5A775E340C2
:100123002275A57075D5702275E43222B29532B26C
:02013300A932EF
:00000001FF
