:020000040000FA
:1000000002001602017002080000000200CD75EF28
:020010000422C8
:10001300020173787FE4F6D8FD75810A02005D0260
:100023000152E493A3F8E493A34003F68001F2089A
:10003300DFF48029E493A3F85407240CC8C333C422
:10004300540F4420C8834004F456800146F6DFE48D
:10005300800B0102040810204080900006E47E011A
:100063009360BCA3FF543F30E509541FFEE493A300
:1000730060010ECF54C025E060A840B8E493A3FA12
:10008300E493A3F8E493A3C8C582C8CAC583CAF09E
:10009300A3C8C582C8CAC583CADFE9DEE780BE85B7
:1000A300A70A1201341201221200FC12013E1201AE
:1000B3005B12000E1201621200E612010F120148D8
:1000C30012016812016C850AA722C0E00509E5093F
:1000D30070020508646445087006B294F508F509D2
:1000E300D0E032AF885388AF758D96758CC0EF54CE
:1000F30040FEEF54104E4288227590FF75A530756F
:10010300F27F75D580E4F5EE75EDFF22E5C8540462
:1001130053C8FB75CBFE75CA6843C80442C8227531
:1001230080FF75A41075F1FFE4F5D4F5FE75FDFFAE
:1001330022E4F5A77597DE7597AD2275A60875A716
:100143002075CC0822758E087589204388452212B4
:1001530000A2C2B4D2AF80FEE4F5A775E34022E467
:10016300F5A9F5A92275E4322275A80722B29432C3
:03017300B2953210
:00000001FF
